:020000040800F2
:100000002C080020890100089D0C0008A90C00089C
:10001000B10C0008B90C0008C10C00080000000079
:10002000000000000000000000000000C90C0008F3
:10003000D50C000800000000E10C0008ED0C0008E1
:10004000F1010008F1010008F1010008F1010008C8
:10005000F1010008F1010008F1010008F1010008B8
:10006000F1010008F1010008F1010008F1010008A8
:10007000F1010008F1010008F1010008F101000898
:10008000F1010008F1010008F1010008F101000888
:10009000F1010008F1010008F1010008F101000878
:1000A000F1010008F1010008F1010008F101000868
:1000B000F1010008F1010008F1010008F101000858
:1000C000F1010008F1010008F1010008F101000848
:1000D000F1010008F1010008F1010008F101000838
:1000E000F1010008F1010008F1010008F101000828
:1000F000F1010008F1010008F1010008F101000818
:10010000F1010008F1010008F1010008F101000807
:10011000F1010008F1010008F1010008F1010008F7
:10012000F1010008F1010008F1010008F1010008E7
:10013000F1010008F1010008F1010008F1010008D7
:10014000F1010008F1010008F1010008F1010008C7
:10015000F1010008F1010008F1010008F1010008B7
:10016000F1010008F1010008F1010008F1010008A7
:10017000F1010008F1010008F1010008F101000897
:10018000F1010008F101000880B582B000AF41F62E
:100190007413C0F600037B6040F20003C2F2000358
:1001A0003B600BE07B681A683B681A603B6803F1B0
:1001B00004033B607B6803F104037B603A6840F210
:1001C0002403C2F200039A42ECD3DFF8BC0EDFF83E
:1001D000BC1E4FF000028842B8BF40F8042BFFF667
:1001E000FAAF00F069F807F10807BD4680BD00BF0F
:1001F00080B400AFFEE700BF80B483B000AF034619
:100200003960FB7197F90730002B10DA4FF46D431A
:10021000CEF20003FA7902F00F02A2F104013A686B
:10022000D2B24FEA0212D2B25B181A760DE04FF446
:100230006143CEF2000397F907103A68D2B24FEA51
:100240000212D2B25B1883F8002307F10C07BD46F7
:1002500080BC704780B582B000AF78607A686FF07C
:100260007F439A4202D94FF001031FE04EF2100380
:10027000CEF200037A6822F07F4202F1FF325A6028
:100280004FF0FF304FF00F01FFF7B6FF4EF21003B3
:10029000CEF200034FF000029A604EF21003CEF24D
:1002A00000034FF007021A604FF00003184607F1F1
:1002B0000807BD4680BD00BF80B500AF00F0DAFD85
:1002C00000F09AFB40F21003C2F200031A6841F2F8
:1002D0005973CDF2B713A3FB02134FEA53331846F9
:1002E000FFF7B8FF4FF000004FF40041C4F26B017C
:1002F0004FF4FA7200F0F0FB40F2F51000F0BEFB94
:100300004FF000004FF40041C4F26B014FF4FA7259
:1003100000F0E2FB40F2F51000F0B0FB4FF00000FF
:100320004FF40041C4F26B014FF4FA7200F0D4FBB9
:1003300040F2F51000F0A2FBEFA1D1E9000140F27C
:10034000771200F0C9FB4FF4BC7000F097FBECA1F2
:10035000D1E900014FF07D0200F0BEFB4FF07E00BE
:1003600000F08CFB4FF000004FF40041C4F26B0131
:100370004FF4FA7200F0B0FB40F2F51000F07EFB93
:10038000DDA1D1E9000140F2771200F0A5FB4FF4A6
:10039000BC7000F073FBDAA1D1E900014FF07D02DF
:1003A00000F09AFB4FF07E0000F068FB4FF0000079
:1003B0004FF40041C4F26B014FF47A7200F08CFBF1
:1003C00040F2E93000F05AFBCFA1D1E900014FF42F
:1003D000FA7200F081FB40F2F51000F04FFBCAA169
:1003E000D1E900014FF4FA7200F076FB40F2F5100B
:1003F00000F044FBC4A1D1E900014FF4FA7200F00F
:100400006BFB40F2F51000F039FBC1A1D1E900010E
:1004100040F2771200F060FB4FF4BC7000F02EFB4E
:10042000B7A1D1E900014FF07D0200F055FB4FF07C
:100430007E0000F023FBB8A1D1E900014FF4FA726D
:1004400000F04AFB40F2F51000F018FBAAA1D1E938
:10045000000140F2771200F03FFB4FF4BC7000F057
:100460000DFBA7A1D1E900014FF07D0200F034FBA4
:100470004FF07E0000F002FB4FF000004FF400410F
:10048000C4F26B014FF47A7200F026FB40F2E930BF
:1004900000F0F4FA4FF000004FF40041C4F27B0189
:1004A0004FF4FA7200F018FB40F2F51000F0E6FA93
:1004B0004FF000004FF40041C4F26B0140F277129C
:1004C00000F00AFB4FF4BC7000F0D8FA4FF00000C7
:1004D0004FF40041C4F26B014FF07D0200F0FCFAD2
:1004E0004FF07E0000F0CAFA4FF000004FF40041D8
:1004F000C4F27B014FF4FA7200F0EEFA40F2F5100C
:1005000000F0BCFA86A1D1E9000140F2771200F0B8
:10051000E3FA4FF4BC7000F0B1FA4FF000004FF472
:100520000041C4F278014FF07D0200F0D5FA4FF09F
:100530007E0000F0A3FA7CA1D1E900014FF07D021A
:1005400000F0CAFA4FF07E0000F098FA6EA1D1E9EF
:1005500000014FF07D0200F0BFFA4FF07E0000F086
:100560008DFA6BA1D1E900014FF0FA0200F0B4FA64
:100570004FF0FB0000F082FA4FF0FB0000F07EFA33
:100580006BA1D1E900014FF0FA0200F0A5FA4FF09B
:10059000FB0000F073FA68A1D1E900014FF4FA7290
:1005A00000F09AFA40F2F51000F068FA64A1D1E97F
:1005B000000140F2771200F08FFA4FF4BC7000F0A7
:1005C0005DFA61A1D1E900014FF07D0200F084FAEB
:1005D0004FF07E0000F052FA49A1D1E900014FF03E
:1005E0007D0200F079FA4FF07E0000F047FA58A142
:1005F000D1E900014FF07D0200F06EFA4FF07E006D
:1006000000F03CFA3EA1D1E900014FF0FA0200F0FF
:1006100063FA4FF0FB0000F031FA4FF0FB0000F0FE
:100620002DFA35A1D1E900014FF0FA0200F054FA99
:100630004FF0FB0000F022FA37A1D1E900014FF49E
:10064000FA7200F049FA40F2F51000F017FA2AA108
:10065000D1E9000140F2771200F03EFA4FF4BC708D
:1006600000F00CFA4FF000004FF40041C4F26B01AF
:100670004FF07D0200F030FA4FF07E0000F0FEF9FE
:100680001FA1D1E900014FF4FA7200F025FA40F2FF
:10069000F51000F0F3F94FF000004FF40041C4F200
:1006A0006B0140F2771200F017FA4FF4BC7000F0C3
:1006B000E5F913A1D1E900014FF07D0200F00CFA39
:1006C0004FF07E0000F0DAF90FA1D1E900014FF4FC
:1006D0007A7200F001FA40F2E93000F0CFF94FF001
:1006E00000004FF40041C4F27B014FF4FA7200F0B5
:1006F000F3F931E0AFF30080EC51B81E85D36540CB
:10070000AE47E17A145A7040AE47E17A149A7440C9
:1007100048E17A14AED37540CDCCCCCCCCF4694052
:10072000CDCCCCCCCCF47940A4703D0AD71F774017
:10073000C3F5285C8F226D40AE47E17A1472734096
:10074000C3F5285C8F5A72407B14AE47E15271406A
:10075000AE47E17A14DE6E4040F2F51000F08EF9FB
:100760004FF000004FF40041C4F26B0140F27712E9
:1007700000F0B2F94FF4BC7000F080F94FF00000C7
:100780004FF40041C4F26B014FF07D0200F0A4F978
:100790004FF07E0000F072F94FF000004FF400417E
:1007A000C4F27B014FF4FA7200F096F940F2F510B2
:1007B00000F064F978A1D1E9000140F2771200F06D
:1007C0008BF94FF4BC7000F059F94FF000004FF472
:1007D0000041C4F278014FF07D0200F07DF94FF046
:1007E0007E0000F04BF96EA1D1E900014FF07D02CF
:1007F00000F072F94FF07E0000F040F96AA1D1E9F3
:1008000000014FF07D0200F067F94FF07E0000F02C
:1008100035F967A1D1E900014FF0FA0200F05CF967
:100820004FF0FB0000F02AF94FF0FB0000F026F932
:1008300061A1D1E900014FF0FA0200F04DF94FF04B
:10084000FB0000F01BF95EA1D1E900014FF4FA7240
:1008500000F042F940F2F51000F010F95AA1D1E988
:10086000000140F2771200F037F94FF4BC7000F04D
:1008700005F957A1D1E900014FF07D0200F02CF9F4
:100880004FF07E0000F0FAF853A1D1E900014FF0DB
:100890007D0200F021F94FF07E0000F0EFF850A14A
:1008A000D1E900014FF07D0200F016F94FF07E0013
:1008B00000F0E4F848A1D1E900014FF0FA0200F09D
:1008C0000BF94FF0FB0000F0D9F84FF0FB0000F0FF
:1008D000D5F845A1D1E900014FF0FA0200F0FCF88B
:1008E0004FF0FB0000F0CAF841A1D1E900014FF43C
:1008F000FA7200F0F1F840F2F51000F0BFF83AA1FA
:10090000D1E9000140F2771200F0E6F84FF4BC7034
:1009100000F0B4F830A1D1E900014FF07D0200F001
:10092000DBF84FF07E0000F0A9F84FF000004FF424
:100930000041C4F26B014FF4FA7200F0CDF840F2BE
:10094000F51000F09BF828A1D1E9000140F27712E0
:1009500000F0C2F84FF4BC7000F090F81EA1D1E98D
:1009600000014FF07D0200F0B7F84FF07E0000F07C
:1009700085F84FF000004FF40041C4F26B014FF4D2
:100980007A7200F0A9F840F2E93000F077F84FF4FD
:10099000FA6000F073F8A5E4CDCCCCCCCCF479406F
:1009A000A4703D0AD71F7740AE47E17A149A74408D
:1009B00048E17A14AED37540C3F5285C8F226D40B0
:1009C000AE47E17A14727340C3F5285C8F5A7240C7
:1009D0007B14AE47E1527140AE47E17A145A704041
:1009E000AE47E17A14DE6E40EC51B81E85D3654007
:1009F000CDCCCCCCCCF4694080B582B000AF4FF008
:100A000008004FF0010100F01FF94FF001004FF016
:100A1000010100F019F94FF470433B604FF00103FE
:100A20003B714FF00003BB714FF002037B714FF03D
:100A30000103FB713B464FF44060C4F202001946CB
:100A400000F05AF94FF400733B604FF001033B7123
:100A50004FF00003BB714FF002037B714FF00103B5
:100A6000FB713B464FF00000C4F20200194600F053
:100A700043F907F10807BD4680BD00BF80B483B0CD
:100A800000AF78607A6840F22803C2F200031A606F
:100A900040F22803C2F200031B68002BF8D107F1D3
:100AA0000C07BD4680BC704780B400AF40F22803FD
:100AB000C2F200031B68002B0BD040F22803C2F2E5
:100AC00000031B6803F1FF3240F22803C2F2000367
:100AD0001A60BD4680BC704780B588B000AFC7E9DA
:100AE00002017A604FF000024FF00003C7E90423CF
:100AF0004FF000024FF00003C7E906234FF000005B
:100B00004FF00001C3F6F071D7E9022300F0A2FD17
:100B100002460B461046194649A3D3E9002300F0CC
:100B20006FFC02460B46C7E904236FE04FF44060B8
:100B3000C4F202004FF4805100F080F94FF440609D
:100B4000C4F202004FF4005100F078F94FF4406015
:100B5000C4F202004FF4804100F070F94FF440609D
:100B6000C4F202004FF4004100F068F94FF00000B9
:100B7000C4F202004FF4007100F060F9D7E90401FB
:100B800000F0D8FE03461846FFF778FF4FF44060A8
:100B9000C4F202004FF4805100F05EF94FF440605F
:100BA000C4F202004FF4005100F056F94FF44060D7
:100BB000C4F202004FF4804100F04EF94FF440605F
:100BC000C4F202004FF4004100F046F94FF000007B
:100BD000C4F202004FF4007100F03EF9D7E90401BD
:100BE00000F0A8FE03461846FFF748FFD7E90423A4
:100BF0001046194600F052FA02460B46D7E90601A4
:100C000000F04CFA02460B46C7E906237A68134601
:100C10004FEA83039B184FEA4303184600F07AFB20
:100C200002460B4610461946D7E9062300F078FE27
:100C30000346002B7FF47AAF07F12007BD4680BD45
:100C4000000000000088C34080B483B000AF78602B
:100C50000B46FB70FB78002B0CD04FF46053C4F2B2
:100C600002034FF46052C4F20202116B7A680A4325
:100C70001A630DE04FF46053C4F202034FF4605264
:100C8000C4F20202116B7A686FEA02020A401A6328
:100C900007F10C07BD4680BC704700BF80B400AFB1
:100CA000BD4680BC704700BF80B400AFFEE700BF08
:100CB00080B400AFFEE700BF80B400AFFEE700BF26
:100CC00080B400AFFEE700BF80B400AFBD4680BC7B
:100CD000704700BF80B400AFBD4680BC704700BF06
:100CE00080B400AFBD4680BC704700BF80B500AF88
:100CF000FFF7DAFE80BD00BF80B487B000AF786038
:100D000039604FF000037B614FF000033B614FF00F
:100D10000003FB604FF000037B6186E07B694FF0CE
:100D2000010202FA03F33B613B681A683B69134016
:100D3000FB60FA683B699A4273D17B681A687B69E9
:100D40004FEA43034FF0030101FA03F36FEA030391
:100D50001A407B681A607B681A683B681B791946E1
:100D60007B694FEA430301FA03F31A437B681A6075
:100D70003B681B79012B03D03B681B79022B34D1D4
:100D80007B689A687B694FEA43034FF0030101FADD
:100D900003F36FEA03031A407B689A607B689A68E2
:100DA0003B685B7919467B694FEA430301FA03F319
:100DB0001A437B689A607B685A687B699BB24FF0E4
:100DC000010101FA03F36FEA03031A407B685A60DA
:100DD0007B685A683B689B7919467B699BB201FA2C
:100DE00003F39BB21A437B685A607B68DA687B69BD
:100DF0009BB24FEA43034FF0030101FA03F36FEA9A
:100E000003031A407B68DA607B68DA683B68DB7949
:100E100019467B694FEA430301FA03F31A437B68DF
:100E2000DA607B6903F101037B617B690F2B7FF63D
:100E300075AF07F11C07BD4680BC704780B483B016
:100E400000AF78600B467B807B687A881A8307F155
:100E50000C07BD4680BC704780B483B000AF78609B
:100E60000B467B807B687A885A8307F10C07BD4666
:100E700080BC704780B500AF4FF46053C4F20203EA
:100E80004FF46052C4F20202126842F001021A608A
:100E90004FF46053C4F202034FF000029A604FF423
:100EA0006053C4F202034FF46052C4F202021268AB
:100EB00022F0847222F480321A604FF46053C4F23C
:100EC000020343F21002C2F200425A604FF4605330
:100ED000C4F202034FF46052C4F20202126822F418
:100EE00080221A604FF46053C4F202034FF00002F4
:100EF000DA6000F009F84FF46D43CEF200034FF0D2
:100F000000629A6080BD00BF80B483B000AF4FF034
:100F100000037B604FF000033B604FF46053C4F26A
:100F200002034FF46052C4F20202126842F48032AB
:100F30001A604FF46053C4F202031B6803F40033D9
:100F40003B607B6803F101037B603B68002B03D1AE
:100F50007B68B3F5A06FECD14FF46053C4F2020389
:100F60001B6803F40033002B03D04FF001033B60F8
:100F700002E04FF000033B603B68012B7FD14FF450
:100F80006053C4F202034FF46052C4F20202126CC6
:100F900042F080521A644FF4E043C4F200034FF46D
:100FA000E042C4F20002126842F480421A604FF438
:100FB0006053C4F202034FF46052C4F2020292681A
:100FC0009A604FF46053C4F202034FF46052C4F2CB
:100FD0000202926842F400429A604FF46053C4F2F5
:100FE00002034FF46052C4F20202926842F4A0522B
:100FF0009A604FF46053C4F2020345F20842C0F213
:1010000040725A604FF46053C4F202034FF46052CE
:10101000C4F20202126842F080721A604FF4605308
:10102000C4F202031B6803F00073002BF6D04FF4E8
:101030007053C4F2020340F205621A604FF4605329
:10104000C4F202034FF46052C4F20202926822F02A
:1010500003029A604FF46053C4F202034FF46052EB
:10106000C4F20202926842F002029A604FF46053A6
:10107000C4F202039B6803F00C03082BF6D107F1BE
:101080000C07BD4680BC7047240000202C000020C7
:1010900081F0004102E000BF83F0004330B54FEA29
:1010A00041044FEA430594EA050F08BF90EA020F96
:1010B0001FBF54EA000C55EA020C7FEA645C7FEA29
:1010C000655C00F0E2804FEA5454D4EB5555B8BF4C
:1010D0006D420CDD2C4480EA020281EA030382EABD
:1010E000000083EA010180EA020281EA0303362D4F
:1010F00088BF30BD11F0004F4FEA01314FF4801C22
:101100004CEA113102D0404261EB410113F0004F33
:101110004FEA03334CEA133302D0524263EB4303EA
:1011200094EA050F00F0A780A4F10104D5F1200E88
:101130000DDB02FA0EFC22FA05F2801841F10001E3
:1011400003FA0EF2801843FA05F359410EE0A5F1B7
:1011500020050EF1200E012A03FA0EFC28BF4CF0E8
:10116000020C43FA05F3C01851EBE37101F000459E
:1011700007D54FF0000EDCF1000C7EEB00006EEBAB
:101180000101B1F5801F1BD3B1F5001F0CD3490835
:101190005FEA30004FEA3C0C04F101044FEA44528C
:1011A00012F5800F80F09A80BCF1004F08BF5FEA13
:1011B000500C50F1000041EB045141EA050130BDF3
:1011C0005FEA4C0C404141EB010111F4801FA4F196
:1011D0000104E9D191F0000F04BF01460020B1FAEB
:1011E00081F308BF2033A3F10B03B3F120020CDA23
:1011F0000C3208DD02F1140CC2F10C0201FA0CF001
:1012000021FA02F10CE002F11402D8BFC2F1200C65
:1012100001FA02F120FA0CFCDCBF41EA0C0190401B
:10122000E41AA2BF01EB0451294330BD6FEA040464
:101230001F3C1CDA0C340EDC04F11404C4F120024F
:1012400020FA04F001FA02F340EA030021FA04F361
:1012500045EA030130BDC4F10C04C4F1200220FAB8
:1012600002F001FA04F340EA0300294630BD21FAF6
:1012700004F0294630BD94F0000F83F4801306BFBC
:1012800081F480110134013D4EE77FEA645C18BFB0
:101290007FEA655C29D094EA050F08BF90EA020F47
:1012A00005D054EA000C04BF1946104630BD91EA3F
:1012B000030F1EBF0021002030BD5FEA545C05D142
:1012C0004000494128BF41F0004130BD14F5800481
:1012D0003CBF01F5801130BD01F0004545F0FE41F5
:1012E00041F470014FF0000030BD7FEA645C1ABF2A
:1012F000194610467FEA655C1CBF0B46024650EA61
:10130000013406BF52EA033591EA030F41F400218C
:1013100030BD00BF90F0000F04BF0021704730B512
:101320004FF4806404F132044FF000054FF00001E7
:1013300050E700BF90F0000F04BF0021704730B5A8
:101340004FF4806404F1320410F0004548BF40427D
:101350004FF000013EE700BF42004FEAE2014FEAD2
:1013600031014FEA02701FBF12F07F4393F07F4FAD
:1013700081F06051704792F0000F14BF93F07F4FDF
:10138000704730B54FF4607401F0004521F0004122
:1013900020E700BF50EA010208BF704730B54FF0A8
:1013A00000050AE050EA010208BF704730B511F0AD
:1013B000004502D5404261EB41014FF4806404F1E5
:1013C00032045FEA915C3FF4DCAE4FF003025FEA67
:1013D000DC0C18BF03325FEADC0C18BF033202EBEF
:1013E000DC02C2F1200300FA03FC20FA02F001FA49
:1013F00003FE40EA0E0021FA02F11444C1E600BFE8
:1014000070B54FF0FF0C4CF4E06C1CEA11541DBF9A
:101410001CEA135594EA0C0F95EA0C0F00F0DEF865
:101420002C4481EA030621EA4C5123EA4C5350EA4A
:10143000013518BF52EA033541F4801143F480139B
:1014400038D0A0FB02CE4FF00005E1FB02E506F02C
:101450000042E0FB03E54FF00006E1FB03569CF081
:10146000000F18BF4EF0010EA4F1FF04B6F5007F87
:1014700064F5407404D25FEA4E0E6D4146EB0606F9
:1014800042EAC62141EA55514FEAC52040EA5E5082
:101490004FEACE2EB4F1FD0C88BFBCF5E06F1ED82C
:1014A000BEF1004F08BF5FEA500E50F1000041EB63
:1014B000045170BD06F0004646EA010140EA020010
:1014C00081EA0301B4EB5C04C2BFD4EB0C0541EA32
:1014D000045170BD41F480114FF0000E013C00F347
:1014E000AB8014F1360FDEBF002001F0004170BD6B
:1014F000C4F10004203C35DA0C341BDC04F1140484
:10150000C4F1200500FA05F320FA04F001FA05F20F
:1015100040EA020001F0004221F0004110EBD370DC
:1015200021FA04F642EB06015EEA430E08BF20EA08
:10153000D37070BDC4F10C04C4F1200500FA04F3AB
:1015400020FA05F001FA04F240EA020001F000413D
:1015500010EBD37041F100015EEA430E08BF20EAB0
:10156000D37070BDC4F1200500FA05F24EEA020EF8
:1015700020FA04F301FA05F243EA020321FA04F027
:1015800001F0004121FA04F220EA020000EBD370DE
:101590005EEA430E08BF20EAD37070BD94F0000FDE
:1015A0000FD101F00046400041EB010111F4801F12
:1015B00008BF013CF7D041EA060195F0000F18BFC3
:1015C000704703F00046520043EB030313F4801FFF
:1015D00008BF013DF7D043EA0603704794EA0C0FB9
:1015E0000CEA135518BF95EA0C0F0CD050EA4106CF
:1015F00018BF52EA4306D1D181EA030101F000414C
:101600004FF0000070BD50EA410606BF1046194673
:1016100052EA430619D094EA0C0F02D150EA01367F
:1016200013D195EA0C0F05D152EA03361CBF1046C0
:1016300019460AD181EA030101F0004141F0FE415F
:1016400041F470014FF0000070BD41F0FE4141F4E3
:10165000780170BD70B54FF0FF0C4CF4E06C1CEAE3
:1016600011541DBF1CEA135594EA0C0F95EA0C0F98
:1016700000F0A7F8A4EB050481EA030E52EA033553
:101680004FEA013100F088804FEA03334FF0805574
:1016900045EA131343EA12634FEA022245EA1115A1
:1016A00045EA10654FEA00260EF000419D4208BF52
:1016B000964244F1FD0404F5407402D25B084FEAFF
:1016C0003202B61A65EB03055B084FEA32024FF4AB
:1016D00080104FF4002CB6EB020E75EB030E22BF08
:1016E000B61A754640EA0C005B084FEA3202B6EBC8
:1016F000020E75EB030E22BFB61A754640EA5C0077
:101700005B084FEA3202B6EB020E75EB030E22BF06
:10171000B61A754640EA9C005B084FEA3202B6EB07
:10172000020E75EB030E22BFB61A754640EADC00C6
:1017300055EA060E18D04FEA051545EA16754FEA28
:1017400006164FEAC30343EA52734FEAC2025FEA46
:101750001C1CC0D111F4801F0BD141EA00014FF0D5
:1017600000004FF0004CB6E711F4801F04BF0143A6
:101770000020B4F1FD0C88BFBCF5E06F3FF6AFAEC2
:10178000B5EB030C04BFB6EB020C5FEA500C50F152
:10179000000041EB045170BD0EF0004E4EEA1131D5
:1017A00014EB5C04C2BFD4EB0C0541EA045170BDDC
:1017B00041F480114FF0000E013C90E645EA060E20
:1017C0008DE60CEA135594EA0C0F08BF95EA0C0F4E
:1017D0003FF43BAF94EA0C0F0AD150EA01347FF496
:1017E00034AF95EA0C0F7FF425AF104619462CE76D
:1017F00095EA0C0F06D152EA03353FF4FDAE1046D0
:10180000194622E750EA410618BF52EA43067FF420
:10181000C5AE50EA41047FF40DAF52EA43057FF4B0
:10182000EBAE12E74FF0FF3C06E000BF4FF0010CBB
:1018300002E000BF4FF0010C4DF804CD4FEA410C1F
:101840007FEA6C5C4FEA430C18BF7FEA6C5C1BD0EC
:1018500001B050EA410C0CBF52EA430C91EA030F6D
:1018600002BF90EA020F0020704710F1000F91EACA
:10187000030F58BF994208BF90422CBFD8176FEA98
:10188000E37040F0010070474FEA410C7FEA6C5C66
:1018900002D150EA013C07D14FEA430C7FEA6C5C6D
:1018A000D6D152EA033CD3D05DF8040B704700BF99
:1018B0008446104662468C461946634600E000BFE7
:1018C00001B5FFF7B7FF002848BF10F1000F01BDB9
:1018D0004DF808EDFFF7F4FF0CBF012000205DF884
:1018E00008FB00BF4DF808EDFFF7EAFF34BF012009
:1018F00000205DF808FB00BF4DF808EDFFF7E0FFA2
:1019000094BF012000205DF808FB00BF4DF808EDF2
:10191000FFF7CEFF94BF012000205DF808FB00BF59
:101920004DF808EDFFF7C4FF34BF012000205DF83B
:1019300008FB00BF4A0011D212F5001211D20DD5DA
:101940006FF47873B3EB62520ED44FEAC12343F0C5
:10195000004343EA505323FA02F070474FF000006F
:10196000704750EA013002D14FF0FF3070474FF01E
:0419700000007047BC
:101974000000000001020304010203040607080931
:10198400007A030A000000000000000001020304C2
:041994000607080931
:04000005080002B934
:00000001FF
